{
  "address": "0xe8B3B5d0d488b905895ceFBDfa0533cf7fC3B6e6",
  "abi": [
    {
      "anonymous": false,
      "inputs": [
        {
          "indexed": false,
          "internalType": "address",
          "name": "party",
          "type": "address"
        }
      ],
      "name": "NewParty",
      "type": "event"
    },
    {
      "inputs": [
        {
          "internalType": "address",
          "name": "_token",
          "type": "address"
        },
        {
          "internalType": "bytes32",
          "name": "_merkleRoot",
          "type": "bytes32"
        },
        {
          "internalType": "uint256",
          "name": "_partyDuration",
          "type": "uint256"
        },
        {
          "internalType": "uint64",
          "name": "_upfrontVestingPct",
          "type": "uint64"
        },
        {
          "internalType": "uint8",
          "name": "_vestingPeriodUnit",
          "type": "uint8"
        },
        {
          "internalType": "uint16",
          "name": "_vestingDurationInPeriods",
          "type": "uint16"
        },
        {
          "internalType": "uint16",
          "name": "_vestingCliffInPeriods",
          "type": "uint16"
        }
      ],
      "name": "startParty",
      "outputs": [
        {
          "internalType": "contract Party",
          "name": "party",
          "type": "address"
        }
      ],
      "stateMutability": "nonpayable",
      "type": "function"
    }
  ],
  "args": [],
  "solcInputHash": "cea3803897c43dd50205ca5eb0ef45bf",
  "bytecode": "0x608060405234801561001057600080fd5b50613c4f806100206000396000f3fe608060405234801561001057600080fd5b506004361061002b5760003560e01c8063374f269514610030575b600080fd5b61008d600480360360e081101561004657600080fd5b506001600160a01b038135169060208101359060408101359067ffffffffffffffff6060820135169060ff6080820135169061ffff60a082013581169160c00135166100a9565b604080516001600160a01b039092168252519081900360200190f35b6000878787878787876040516100be90610173565b6001600160a01b039097168752602087019590955260408087019490945267ffffffffffffffff909216606086015260ff16608085015261ffff90811660a08501529190911660c0830152519081900360e001906000f080158015610127573d6000803e3d6000fd5b50604080516001600160a01b038316815290519192507f9516808c9a4e54b7333d85eef403953bcc75af76111adf3496a777d8a1f2a245919081900360200190a1979650505050505050565b613a99806101818339019056fe60e060405262015180608090815262093a8060a052622819a060c0526200002b9060019060036200070e565b503480156200003957600080fd5b5060405162003a9938038062003a99833981810160405260e08110156200005f57600080fd5b50805160208201516040808401516060850151608086015160a087015160c09097015184516306fdde0360e01b815294519697959693959294919390916001600160a01b038916916306fdde0391600480820192600092909190829003018186803b158015620000ce57600080fd5b505afa158015620000e3573d6000803e3d6000fd5b505050506040513d6000823e601f3d908101601f1916820160405260208110156200010d57600080fd5b81019080805160405193929190846401000000008211156200012e57600080fd5b9083019060208201858111156200014457600080fd5b82516401000000008111828201881017156200015f57600080fd5b82525081516020918201929091019080838360005b838110156200018e57818101518382015260200162000174565b50505050905090810190601f168015620001bc5780820380516001836020036101000a031916815260200191505b5060405250505060405160200180806602b32b9ba32b2160cd1b81525060070182805190602001908083835b60208310620002095780518252601f199092019160209182019101620001e8565b6001836020036101000a038019825116818451168082178552505050505050905001915050604051602081830303815290604052876001600160a01b03166395d89b416040518163ffffffff1660e01b815260040160006040518083038186803b1580156200027757600080fd5b505afa1580156200028c573d6000803e3d6000fd5b505050506040513d6000823e601f3d908101601f191682016040526020811015620002b657600080fd5b8101908080516040519392919084640100000000821115620002d757600080fd5b908301906020820185811115620002ed57600080fd5b82516401000000008111828201881017156200030857600080fd5b82525081516020918201929091019080838360005b83811015620003375781810151838201526020016200031d565b50505050905090810190601f168015620003655780820380516001836020036101000a031916815260200191505b506040525050506040516020018080603b60f91b81525060010182805190602001908083835b60208310620003ac5780518252601f1990920191602091820191016200038b565b6001836020036101000a038019825116818451168082178552505050505050905001915050604051602081830303815290604052888585856000620003f66200062260201b60201c565b600080546001600160a01b0319166001600160a01b0383169081178255604051929350917f8be0079c531659141344cd1fd0a4f28419497f9722a3daafe3b4186f6b6457e0908290a3506001600160a01b0384166200045457600080fd5b8061ffff168261ffff16116200046957600080fd5b60058054600160201b600160c01b0319166401000000006001600160a01b03871602179055600160ff8416600381106200049f57fe5b01546004556005805461ffff928316620100000263ffff0000199490931661ffff19909116179290921617905550620004e190506301ffc9a760e01b62000627565b8151620004f690600d90602085019062000751565b5080516200050c90600e90602084019062000751565b50620005286380ac58cd60e01b6001600160e01b036200062716565b62000543635b5e139f60e01b6001600160e01b036200062716565b6200055e63780e9d6360e01b6001600160e01b036200062716565b5050601480546001600160401b0319166001600160401b038616179055620005938542620006ac602090811b62001b9917901c565b60155560138690556005546040516401000000009091046001600160a01b0316908790620005c190620007c3565b6001600160a01b0390921682526020820152604080519182900301906000f080158015620005f3573d6000803e3d6000fd5b50601280546001600160a01b0319166001600160a01b039290921691909117905550620007ee95505050505050565b335b90565b6001600160e01b0319808216141562000687576040805162461bcd60e51b815260206004820152601c60248201527f4552433136353a20696e76616c696420696e7465726661636520696400000000604482015290519081900360640190fd5b6001600160e01b0319166000908152600760205260409020805460ff19166001179055565b60008282018381101562000707576040805162461bcd60e51b815260206004820152601b60248201527f536166654d6174683a206164646974696f6e206f766572666c6f770000000000604482015290519081900360640190fd5b9392505050565b82600381019282156200073f579160200282015b828111156200073f57825182559160200191906001019062000722565b506200074d929150620007d1565b5090565b828054600181600116156101000203166002900490600052602060002090601f016020900481019282601f106200079457805160ff19168380011785556200073f565b828001600101855582156200073f57918201828111156200073f57825182559160200191906001019062000722565b610508806200359183390190565b6200062491905b808211156200074d5760008155600101620007d8565b612d9380620007fe6000396000f3fe608060405234801561001057600080fd5b50600436106102275760003560e01c806370a0823111610130578063ae9682fd116100b8578063f2fde38b1161007c578063f2fde38b14610774578063f3640e741461079a578063f4537f78146107a2578063fc0c546a146107aa578063fc157cb4146107b257610227565b8063ae9682fd1461062b578063b88d4fde14610648578063c87b56dd1461070c578063cbd0937114610729578063e985e9c51461074657610227565b80638da5cb5b116100ff5780638da5cb5b1461054657806395d89b411461054e5780639ff5908114610556578063a22cb46514610573578063ab3b1c1b146105a157610227565b806370a08231146104f3578063715018a6146105195780637313ee5a146105215780637935510b1461052957610227565b80633a81bd5e116101b35780635db976da116101825780635db976da1461048457806361d8013d146104a95780636352211e146104b15780636c0360eb146104ce5780636c98382a146104d657610227565b80633a81bd5e146103ee57806342842e0e1461040b57806349df728c146104415780634f6ccce71461046757610227565b80631514617e116101fa5780631514617e1461034b57806318160ddd1461036a57806323b872dd146103845780632eb4a7ab146103ba5780632f745c59146103c257610227565b806301ffc9a71461022c57806306fdde0314610267578063081812fc146102e4578063095ea7b31461031d575b600080fd5b6102536004803603602081101561024257600080fd5b50356001600160e01b0319166107ba565b604080519115158252519081900360200190f35b61026f6107dd565b6040805160208082528351818301528351919283929083019185019080838360005b838110156102a9578181015183820152602001610291565b50505050905090810190601f1680156102d65780820380516001836020036101000a031916815260200191505b509250505060405180910390f35b610301600480360360208110156102fa57600080fd5b5035610873565b604080516001600160a01b039092168252519081900360200190f35b6103496004803603604081101561033357600080fd5b506001600160a01b0381351690602001356108d5565b005b6103536109b0565b6040805161ffff9092168252519081900360200190f35b6103726109ba565b60408051918252519081900360200190f35b6103496004803603606081101561039a57600080fd5b506001600160a01b038135811691602081013590911690604001356109cb565b610372610a06565b610372600480360360408110156103d857600080fd5b506001600160a01b038135169060200135610a0c565b6103726004803603602081101561040457600080fd5b5035610a3d565b6103496004803603606081101561042157600080fd5b506001600160a01b03813581169160208101359091169060400135610a52565b6103496004803603602081101561045757600080fd5b50356001600160a01b0316610a6d565b6103726004803603602081101561047d57600080fd5b5035610c7e565b61048c610c9a565b6040805167ffffffffffffffff9092168252519081900360200190f35b610372610caa565b610301600480360360208110156104c757600080fd5b5035610cb0565b61026f610cde565b610372600480360360208110156104ec57600080fd5b5035610d3f565b6103726004803603602081101561050957600080fd5b50356001600160a01b0316610d54565b610349610dbc565b610372610e70565b6103496004803603602081101561053f57600080fd5b5035610e76565b610301611025565b61026f611034565b6103536004803603602081101561056c57600080fd5b5035611095565b6103496004803603604081101561058957600080fd5b506001600160a01b03813516906020013515156110ae565b610349600480360360808110156105b757600080fd5b8135916001600160a01b036020820135169160408201359190810190608081016060820135600160201b8111156105ed57600080fd5b8201836020820111156105ff57600080fd5b803590602001918460208302840111600160201b8311171561062057600080fd5b5090925090506111b3565b6103016004803603602081101561064157600080fd5b5035611429565b6103496004803603608081101561065e57600080fd5b6001600160a01b03823581169260208101359091169160408201359190810190608081016060820135600160201b81111561069857600080fd5b8201836020820111156106aa57600080fd5b803590602001918460018302840111600160201b831117156106cb57600080fd5b91908080601f016020809104026020016040519081016040528093929190818152602001838380828437600092019190915250929550611444945050505050565b61026f6004803603602081101561072257600080fd5b5035611486565b6103726004803603602081101561073f57600080fd5b503561172d565b6102536004803603604081101561075c57600080fd5b506001600160a01b0381358116916020013516611742565b6103496004803603602081101561078a57600080fd5b50356001600160a01b0316611770565b61035361187a565b61030161188a565b610301611899565b61048c6118af565b6001600160e01b0319811660009081526007602052604090205460ff165b919050565b600d8054604080516020601f60026000196101006001881615020190951694909404938401819004810282018101909252828152606093909290918301828280156108695780601f1061083e57610100808354040283529160200191610869565b820191906000526020600020905b81548152906001019060200180831161084c57829003601f168201915b5050505050905090565b600061087e826118bb565b6108b95760405162461bcd60e51b815260040180806020018281038252602c815260200180612c88602c913960400191505060405180910390fd5b506000908152600b60205260409020546001600160a01b031690565b60006108e082610cb0565b9050806001600160a01b0316836001600160a01b031614156109335760405162461bcd60e51b8152600401808060200182810382526021815260200180612d0c6021913960400191505060405180910390fd5b806001600160a01b03166109456118ce565b6001600160a01b031614806109665750610966816109616118ce565b611742565b6109a15760405162461bcd60e51b8152600401808060200182810382526038815260200180612bba6038913960400191505060405180910390fd5b6109ab83836118d2565b505050565b60055461ffff1681565b60006109c66009611940565b905090565b826001600160a01b03166109de82611429565b6001600160a01b0316146109f157600080fd5b6109fb818361194b565b6109ab8383836119ab565b60135481565b6001600160a01b0382166000908152600860205260408120610a34908363ffffffff611a0216565b90505b92915050565b60009081526006602052604090206004015490565b6109ab83838360405180602001604052806000815250611444565b610a756118ce565b6000546001600160a01b03908116911614610ad7576040805162461bcd60e51b815260206004820181905260248201527f4f776e61626c653a2063616c6c6572206973206e6f7420746865206f776e6572604482015290519081900360640190fd5b601554804211610b2e576040805162461bcd60e51b815260206004820152601a60248201527f50617274793a206475726174696f6e206e6f742072656163682e000000000000604482015290519081900360640190fd5b600554604080516370a0823160e01b81523060048201529051600160201b9092046001600160a01b03169163a9059cbb91859184916370a08231916024808301926020929190829003018186803b158015610b8857600080fd5b505afa158015610b9c573d6000803e3d6000fd5b505050506040513d6020811015610bb257600080fd5b5051604080516001600160e01b031960e086901b1681526001600160a01b03909316600484015260248301919091525160448083019260209291908290030181600087803b158015610c0357600080fd5b505af1158015610c17573d6000803e3d6000fd5b505050506040513d6020811015610c2d57600080fd5b5051610c7a576040805162461bcd60e51b81526020600482015260176024820152762830b93a3c9d102a3930b739b332b9103330b4b632b21760491b604482015290519081900360640190fd5b5050565b600080610c9260098463ffffffff611a0e16565b509392505050565b60145467ffffffffffffffff1681565b60155481565b6000610a3782604051806060016040528060298152602001612c1c602991396009919063ffffffff611a2a16565b60108054604080516020601f60026000196101006001881615020190951694909404938401819004810282018101909252828152606093909290918301828280156108695780601f1061083e57610100808354040283529160200191610869565b60009081526006602052604090206002015490565b60006001600160a01b038216610d9b5760405162461bcd60e51b815260040180806020018281038252602a815260200180612bf2602a913960400191505060405180910390fd5b6001600160a01b0382166000908152600860205260409020610a3790611940565b610dc46118ce565b6000546001600160a01b03908116911614610e26576040805162461bcd60e51b815260206004820181905260248201527f4f776e61626c653a2063616c6c6572206973206e6f7420746865206f776e6572604482015290519081900360640190fd5b600080546040516001600160a01b03909116907f8be0079c531659141344cd1fd0a4f28419497f9722a3daafe3b4186f6b6457e0908390a3600080546001600160a01b0319169055565b60045481565b600080610e8283611a41565b909250905080610ec7576040805162461bcd60e51b815260206004820152600b60248201526a056657374656420697320360ac1b604482015290519081900360640190fd5b60008381526006602052604090206003810154610ef29061ffff90811690851663ffffffff611b9916565b60038201805461ffff191661ffff929092169190911790556004810154610f199083611b99565b60048083019190915560055482546040805163a9059cbb60e01b81526001600160a01b03928316948101949094526024840186905251600160201b909204169163a9059cbb9160448083019260209291908290030181600087803b158015610f8057600080fd5b505af1158015610f94573d6000803e3d6000fd5b505050506040513d6020811015610faa57600080fd5b5051610fe9576040805162461bcd60e51b81526020600482015260096024820152686e6f20746f6b656e7360b81b604482015290519081900360640190fd5b60408051838152905185917f06f9a9458da6e9018259dd142054d8105c44b298fa5dac8a0e96d03521911029919081900360200190a250505050565b6000546001600160a01b031690565b600e8054604080516020601f60026000196101006001881615020190951694909404938401819004810282018101909252828152606093909290918301828280156108695780601f1061083e57610100808354040283529160200191610869565b60009081526006602052604090206003015461ffff1690565b6110b66118ce565b6001600160a01b0316826001600160a01b0316141561111c576040805162461bcd60e51b815260206004820152601960248201527f4552433732313a20617070726f766520746f2063616c6c657200000000000000604482015290519081900360640190fd5b80600c60006111296118ce565b6001600160a01b03908116825260208083019390935260409182016000908120918716808252919093529120805460ff19169215159290921790915561116d6118ce565b60408051841515815290516001600160a01b0392909216917f17307eab39ab6107e8899845ad3d59bd9653f200f220920489ca2b5937696c319181900360200190a35050565b601254604051632e7ba6ef60e01b8152600481018781526001600160a01b0387811660248401526044830187905260806064840190815260848401869052931692632e7ba6ef9289928992899289928992909160a401846020850280828437600081840152601f19601f8201169050808301925050509650505050505050600060405180830381600087803b15801561124b57600080fd5b505af115801561125f573d6000803e3d6000fd5b5050505061126d6011611bf3565b60006112796011611bfc565b90506112858582611c00565b6014546112db90829087906112d690670de0b6b3a7640000906112ca906112bd90839067ffffffffffffffff1663ffffffff611c1a16565b8a9063ffffffff611c5c16565b9063ffffffff611cb516565b611cf7565b60145467ffffffffffffffff16156113f657600554601454600160201b9091046001600160a01b03169063a9059cbb90879061133090670de0b6b3a7640000906112ca908a9067ffffffffffffffff16611c5c565b6040518363ffffffff1660e01b815260040180836001600160a01b03166001600160a01b0316815260200182815260200192505050602060405180830381600087803b15801561137f57600080fd5b505af1158015611393573d6000803e3d6000fd5b505050506040513d60208110156113a957600080fd5b50516113f6576040805162461bcd60e51b81526020600482015260176024820152762830b93a3c9d102a3930b739b332b9103330b4b632b21760491b604482015290519081900360640190fd5b60405181907f47f9798984174beb6b19fa5454e36a5a11ea01f62da6955a10cbe84fd3a6f72c90600090a2505050505050565b6000908152600660205260409020546001600160a01b031690565b836001600160a01b031661145783611429565b6001600160a01b03161461146a57600080fd5b611474828461194b565b61148084848484611e3e565b50505050565b6060611491826118bb565b6114cc5760405162461bcd60e51b815260040180806020018281038252602f815260200180612cdd602f913960400191505060405180910390fd5b6000828152600f602090815260409182902080548351601f60026000196101006001861615020190931692909204918201849004840281018401909452808452606093928301828280156115615780601f1061153657610100808354040283529160200191611561565b820191906000526020600020905b81548152906001019060200180831161154457829003601f168201915b50506010549394505050506002600019610100600184161502019091160461158a5790506107d8565b80511561165b5760108160405160200180838054600181600116156101000203166002900480156115f25780601f106115d05761010080835404028352918201916115f2565b820191906000526020600020905b8154815290600101906020018083116115de575b5050825160208401908083835b6020831061161e5780518252601f1990920191602091820191016115ff565b6001836020036101000a038019825116818451168082178552505050505050905001925050506040516020818303038152906040529150506107d8565b601061166684611e96565b60405160200180838054600181600116156101000203166002900480156116c45780601f106116a25761010080835404028352918201916116c4565b820191906000526020600020905b8154815290600101906020018083116116b0575b5050825160208401908083835b602083106116f05780518252601f1990920191602091820191016116d1565b6001836020036101000a03801982511681845116808217855250505050505090500192505050604051602081830303815290604052915050919050565b60009081526006602052604090206001015490565b6001600160a01b039182166000908152600c6020908152604080832093909416825291909152205460ff1690565b6117786118ce565b6000546001600160a01b039081169116146117da576040805162461bcd60e51b815260206004820181905260248201527f4f776e61626c653a2063616c6c6572206973206e6f7420746865206f776e6572604482015290519081900360640190fd5b6001600160a01b03811661181f5760405162461bcd60e51b8152600401808060200182810382526026815260200180612b446026913960400191505060405180910390fd5b600080546040516001600160a01b03808516939216917f8be0079c531659141344cd1fd0a4f28419497f9722a3daafe3b4186f6b6457e091a3600080546001600160a01b0319166001600160a01b0392909216919091179055565b60055462010000900461ffff1681565b6012546001600160a01b031681565b600554600160201b90046001600160a01b031681565b670de0b6b3a764000081565b6000610a3760098363ffffffff611f7116565b3390565b6000818152600b6020526040902080546001600160a01b0319166001600160a01b038416908117909155819061190782610cb0565b6001600160a01b03167f8c5be1e5ebec7d5bd14f71427d1e84f3dd0314c0f7b2291e5b200ac8c7c3b92560405160405180910390a45050565b6000610a3782611bfc565b61195482610e76565b60008281526006602052604080822080546001600160a01b0319166001600160a01b0385161781559051909184917fc1824999cb4cd8ccb93e8e67f4fa273e70cbf00a1e0d7dab6938865d58cc2d9d9190a2505050565b6119bc6119b66118ce565b82611f7d565b6119f75760405162461bcd60e51b8152600401808060200182810382526031815260200180612d2d6031913960400191505060405180910390fd5b6109ab838383612021565b6000610a34838361217f565b6000808080611a1d86866121e3565b9097909650945050505050565b6000611a3784848461225e565b90505b9392505050565b60008181526006602052604081206001810154600482015483929111611aa6576040805162461bcd60e51b815260206004820152601560248201527415995cdd1a5b99c8199d5b1b1e4818db185a5b5959605a1b604482015290519081900360640190fd5b6000611aca6004546112ca8460020154611abe612328565b9063ffffffff611c1a16565b60055490915062010000900461ffff16811015611af0575060009250829150611b949050565b60055461ffff168110611b2e576000611b1a83600401548460010154611c1a90919063ffffffff16565b60055461ffff1695509350611b9492505050565b6003820154600090611b4b90839061ffff1663ffffffff611c1a16565b6005546001850154919250600091611b6c9161ffff1663ffffffff611cb516565b90506000611b8461ffff84168363ffffffff611c5c16565b929650919450611b949350505050565b915091565b600082820183811015610a34576040805162461bcd60e51b815260206004820152601b60248201527f536166654d6174683a206164646974696f6e206f766572666c6f770000000000604482015290519081900360640190fd5b80546001019055565b5490565b610c7a82826040518060200160405280600081525061232c565b6000610a3483836040518060400160405280601e81526020017f536166654d6174683a207375627472616374696f6e206f766572666c6f77000081525061237e565b600082611c6b57506000610a37565b82820282848281611c7857fe5b0414610a345760405162461bcd60e51b8152600401808060200182810382526021815260200180612c676021913960400191505060405180910390fd5b6000610a3483836040518060400160405280601a81526020017f536166654d6174683a206469766973696f6e206279207a65726f0000000000008152506123d8565b600554600090611d1290839061ffff1663ffffffff611cb516565b905060008111611d69576040805162461bcd60e51b815260206004820152601960248201527f616d6f756e74566573746564506572506572696f64203e203000000000000000604482015290519081900360640190fd5b611d71612ab3565b6040518060a00160405280856001600160a01b03168152602001848152602001611d99612328565b815260006020808301829052604092830182905288825260068152828220845181546001600160a01b0319166001600160a01b03909116178155908401516001820155838301516002820155606084015160038201805461ffff191661ffff9092169190911790556080840151600490910155905191925086917f7fc35119d3b3c2716103649a77c63b4a0062583d6c5dff44606e5333ba40771b9190a25050505050565b611e4f611e496118ce565b83611f7d565b611e8a5760405162461bcd60e51b8152600401808060200182810382526031815260200180612d2d6031913960400191505060405180910390fd5b6114808484848461243d565b606081611ebb57506040805180820190915260018152600360fc1b60208201526107d8565b8160005b8115611ed357600101600a82049150611ebf565b60608167ffffffffffffffff81118015611eec57600080fd5b506040519080825280601f01601f191660200182016040528015611f17576020820181803683370190505b50859350905060001982015b8315611f6857600a840660300160f81b82828060019003935081518110611f4657fe5b60200101906001600160f81b031916908160001a905350600a84049350611f23565b50949350505050565b6000610a34838361248f565b6000611f88826118bb565b611fc35760405162461bcd60e51b815260040180806020018281038252602c815260200180612b8e602c913960400191505060405180910390fd5b6000611fce83610cb0565b9050806001600160a01b0316846001600160a01b031614806120095750836001600160a01b0316611ffe84610873565b6001600160a01b0316145b8061201957506120198185611742565b949350505050565b826001600160a01b031661203482610cb0565b6001600160a01b0316146120795760405162461bcd60e51b8152600401808060200182810382526029815260200180612cb46029913960400191505060405180910390fd5b6001600160a01b0382166120be5760405162461bcd60e51b8152600401808060200182810382526024815260200180612b6a6024913960400191505060405180910390fd5b6120c98383836109ab565b6120d46000826118d2565b6001600160a01b03831660009081526008602052604090206120fc908263ffffffff6124a716565b506001600160a01b0382166000908152600860205260409020612125908263ffffffff6124b316565b506121386009828463ffffffff6124bf16565b5080826001600160a01b0316846001600160a01b03167fddf252ad1be2c89b69c2b068fc378daa952ba7f163c4a11628f55a4df523b3ef60405160405180910390a4505050565b815460009082106121c15760405162461bcd60e51b8152600401808060200182810382526022815260200180612af06022913960400191505060405180910390fd5b8260000182815481106121d057fe5b9060005260206000200154905092915050565b8154600090819083106122275760405162461bcd60e51b8152600401808060200182810382526022815260200180612c456022913960400191505060405180910390fd5b600084600001848154811061223857fe5b906000526020600020906002020190508060000154816001015492509250509250929050565b600082815260018401602052604081205482816122f95760405162461bcd60e51b81526004018080602001828103825283818151815260200191508051906020019080838360005b838110156122be5781810151838201526020016122a6565b50505050905090810190601f1680156122eb5780820380516001836020036101000a031916815260200191505b509250505060405180910390fd5b5084600001600182038154811061230c57fe5b9060005260206000209060020201600101549150509392505050565b4290565b61233683836124d5565b612343600084848461260f565b6109ab5760405162461bcd60e51b8152600401808060200182810382526032815260200180612b126032913960400191505060405180910390fd5b600081848411156123d05760405162461bcd60e51b81526020600482018181528351602484015283519092839260449091019190850190808383600083156122be5781810151838201526020016122a6565b505050900390565b600081836124275760405162461bcd60e51b81526020600482018181528351602484015283519092839260449091019190850190808383600083156122be5781810151838201526020016122a6565b50600083858161243357fe5b0495945050505050565b612448848484612021565b6124548484848461260f565b6114805760405162461bcd60e51b8152600401808060200182810382526032815260200180612b126032913960400191505060405180910390fd5b60009081526001919091016020526040902054151590565b6000610a34838361278f565b6000610a348383612855565b6000611a3784846001600160a01b03851661289f565b6001600160a01b038216612530576040805162461bcd60e51b815260206004820181905260248201527f4552433732313a206d696e7420746f20746865207a65726f2061646472657373604482015290519081900360640190fd5b612539816118bb565b1561258b576040805162461bcd60e51b815260206004820152601c60248201527f4552433732313a20746f6b656e20616c7265616479206d696e74656400000000604482015290519081900360640190fd5b612597600083836109ab565b6001600160a01b03821660009081526008602052604090206125bf908263ffffffff6124b316565b506125d26009828463ffffffff6124bf16565b5060405181906001600160a01b038416906000907fddf252ad1be2c89b69c2b068fc378daa952ba7f163c4a11628f55a4df523b3ef908290a45050565b6000612623846001600160a01b0316612936565b61262f57506001612019565b6060612755630a85bd0160e11b6126446118ce565b88878760405160240180856001600160a01b03166001600160a01b03168152602001846001600160a01b03166001600160a01b0316815260200183815260200180602001828103825283818151815260200191508051906020019080838360005b838110156126bd5781810151838201526020016126a5565b50505050905090810190601f1680156126ea5780820380516001836020036101000a031916815260200191505b5095505050505050604051602081830303815290604052906001600160e01b0319166020820180516001600160e01b038381831617835250505050604051806060016040528060328152602001612b12603291396001600160a01b038816919063ffffffff61293c16565b9050600081806020019051602081101561276e57600080fd5b50516001600160e01b031916630a85bd0160e11b1492505050949350505050565b6000818152600183016020526040812054801561284b57835460001980830191908101906000908790839081106127c257fe5b90600052602060002001549050808760000184815481106127df57fe5b60009182526020808320909101929092558281526001898101909252604090209084019055865487908061280f57fe5b60019003818190600052602060002001600090559055866001016000878152602001908152602001600020600090556001945050505050610a37565b6000915050610a37565b6000612861838361248f565b61289757508154600181810184556000848152602080822090930184905584548482528286019093526040902091909155610a37565b506000610a37565b600082815260018401602052604081205480612904575050604080518082018252838152602080820184815286546001818101895560008981528481209551600290930290950191825591519082015586548684528188019092529290912055611a3a565b8285600001600183038154811061291757fe5b9060005260206000209060020201600101819055506000915050611a3a565b3b151590565b6060611a378484600085606061295185612936565b6129a2576040805162461bcd60e51b815260206004820152601d60248201527f416464726573733a2063616c6c20746f206e6f6e2d636f6e7472616374000000604482015290519081900360640190fd5b60006060866001600160a01b031685876040518082805190602001908083835b602083106129e15780518252601f1990920191602091820191016129c2565b6001836020036101000a03801982511681845116808217855250505050505090500191505060006040518083038185875af1925050503d8060008114612a43576040519150601f19603f3d011682016040523d82523d6000602084013e612a48565b606091505b50915091508115612a5c5791506120199050565b805115612a6c5780518082602001fd5b60405162461bcd60e51b81526020600482018181528651602484015286518793919283926044019190850190808383600083156122be5781810151838201526020016122a6565b6040518060a0016040528060006001600160a01b031681526020016000815260200160008152602001600061ffff16815260200160008152509056fe456e756d657261626c655365743a20696e646578206f7574206f6620626f756e64734552433732313a207472616e7366657220746f206e6f6e20455243373231526563656976657220696d706c656d656e7465724f776e61626c653a206e6577206f776e657220697320746865207a65726f20616464726573734552433732313a207472616e7366657220746f20746865207a65726f20616464726573734552433732313a206f70657261746f7220717565727920666f72206e6f6e6578697374656e7420746f6b656e4552433732313a20617070726f76652063616c6c6572206973206e6f74206f776e6572206e6f7220617070726f76656420666f7220616c6c4552433732313a2062616c616e636520717565727920666f7220746865207a65726f20616464726573734552433732313a206f776e657220717565727920666f72206e6f6e6578697374656e7420746f6b656e456e756d657261626c654d61703a20696e646578206f7574206f6620626f756e6473536166654d6174683a206d756c7469706c69636174696f6e206f766572666c6f774552433732313a20617070726f76656420717565727920666f72206e6f6e6578697374656e7420746f6b656e4552433732313a207472616e73666572206f6620746f6b656e2074686174206973206e6f74206f776e4552433732314d657461646174613a2055524920717565727920666f72206e6f6e6578697374656e7420746f6b656e4552433732313a20617070726f76616c20746f2063757272656e74206f776e65724552433732313a207472616e736665722063616c6c6572206973206e6f74206f776e6572206e6f7220617070726f766564a2646970667358221220b19ad3b8cf18d5b3585eee424fede5a76e0bdd287112ad465fbe9fb054c9739364736f6c6343000607003360c060405234801561001057600080fd5b506040516105083803806105088339818101604052604081101561003357600080fd5b508051602090910151606082901b6001600160601b03191660805260a08190526001600160a01b03909116906104876100816000398061020b52806102cc52508061031652506104876000f3fe608060405234801561001057600080fd5b506004361061004c5760003560e01c80632e7ba6ef146100515780632eb4a7ab146100df5780639e34070f146100f9578063fc0c546a1461012a575b600080fd5b6100dd6004803603608081101561006757600080fd5b8135916001600160a01b03602082013516916040820135919081019060808101606082013564010000000081111561009e57600080fd5b8201836020820111156100b057600080fd5b803590602001918460208302840111640100000000831117156100d257600080fd5b50909250905061014e565b005b6100e76102ca565b60408051918252519081900360200190f35b6101166004803603602081101561010f57600080fd5b50356102ee565b604080519115158252519081900360200190f35b610132610314565b604080516001600160a01b039092168252519081900360200190f35b610157856102ee565b156101935760405162461bcd60e51b81526004018080602001828103825260288152602001806104096028913960400191505060405180910390fd5b6040805160208082018890526bffffffffffffffffffffffff19606088901b1682840152605480830187905283518084039091018152607483018085528151918301919091206094928602808501840190955285825293610236939192879287928392909101908490808284376000920191909152507f000000000000000000000000000000000000000000000000000000000000000092508591506103389050565b6102715760405162461bcd60e51b81526004018080602001828103825260218152602001806104316021913960400191505060405180910390fd5b61027a866103e1565b604080518781526001600160a01b038716602082015280820186905290517f4ec90e965519d92681267467f775ada5bd214aa92c0dc93d90a5e880ce9ed0269181900360600190a1505050505050565b7f000000000000000000000000000000000000000000000000000000000000000081565b6101008104600090815260208190526040902054600160ff9092169190911b9081161490565b7f000000000000000000000000000000000000000000000000000000000000000081565b600081815b85518110156103d657600086828151811061035457fe5b6020026020010151905080831161039b57828160405160200180838152602001828152602001925050506040516020818303038152906040528051906020012092506103cd565b808360405160200180838152602001828152602001925050506040516020818303038152906040528051906020012092505b5060010161033d565b509092149392505050565b610100810460009081526020819052604090208054600160ff9093169290921b909117905556fe4d65726b6c654469737472696275746f723a2044726f7020616c726561647920636c61696d65642e4d65726b6c654469737472696275746f723a20496e76616c69642070726f6f662ea2646970667358221220ab459814f59a7ca12340cc2926f737b6f3417e4d76af39800f9355a91d2aa8ff64736f6c63430006070033a2646970667358221220ad0a6f8140891e15b114a9b6b32e331a232c080c4fd6d60420935e1770dec4bd64736f6c63430006070033",
  "devdoc": {
    "methods": {}
  },
  "userdoc": {
    "methods": {}
  },
  "storageLayout": {
    "storage": [],
    "types": null
  }
}