{
  "address": "0x4D85D70E1036bc05342b25e6a3aD520790Ec6680",
  "abi": [
    {
      "anonymous": false,
      "inputs": [
        {
          "indexed": false,
          "internalType": "address",
          "name": "party",
          "type": "address"
        }
      ],
      "name": "NewParty",
      "type": "event"
    },
    {
      "inputs": [
        {
          "internalType": "address",
          "name": "_token",
          "type": "address"
        },
        {
          "internalType": "bytes32",
          "name": "_merkleRoot",
          "type": "bytes32"
        },
        {
          "internalType": "uint64",
          "name": "_upfrontVestingPct",
          "type": "uint64"
        },
        {
          "internalType": "uint8",
          "name": "_vestingPeriodUnit",
          "type": "uint8"
        },
        {
          "internalType": "uint16",
          "name": "_vestingDurationInPeriods",
          "type": "uint16"
        },
        {
          "internalType": "uint16",
          "name": "_vestingCliffInPeriods",
          "type": "uint16"
        }
      ],
      "name": "startParty",
      "outputs": [
        {
          "internalType": "contract Party",
          "name": "party",
          "type": "address"
        }
      ],
      "stateMutability": "nonpayable",
      "type": "function"
    }
  ],
  "transactionHash": "0x0c8893424b3de93cade7f7d408339c5e16dd1742168bbe1395f6454613985495",
  "args": [],
  "solcInputHash": "3a7a89e7294705b7e5de908da70980cf",
  "bytecode": "0x608060405234801561001057600080fd5b50613726806100206000396000f3fe608060405234801561001057600080fd5b506004361061002b5760003560e01c806304ee388614610030575b600080fd5b610087600480360360c081101561004657600080fd5b506001600160a01b038135169060208101359067ffffffffffffffff6040820135169060ff6060820135169061ffff608082013581169160a00135166100a3565b604080516001600160a01b039092168252519081900360200190f35b60008686868686866040516100b790610166565b6001600160a01b039096168652602086019490945267ffffffffffffffff90921660408086019190915260ff909116606085015261ffff9182166080850152911660a0830152519081900360c001906000f08015801561011b573d6000803e3d6000fd5b50604080516001600160a01b038316815290519192507f9516808c9a4e54b7333d85eef403953bcc75af76111adf3496a777d8a1f2a245919081900360200190a19695505050505050565b61357d806101748339019056fe60e060405262015180608090815262093a8060a052622819a060c0526200002b90600090600362000656565b503480156200003957600080fd5b506040516200357d3803806200357d833981810160405260c08110156200005f57600080fd5b50805160208201516040808401516060850151608086015160a09096015183516306fdde0360e01b815293519596949592949193919290916001600160a01b038816916306fdde0391600480820192600092909190829003018186803b158015620000c957600080fd5b505afa158015620000de573d6000803e3d6000fd5b505050506040513d6000823e601f3d908101601f1916820160405260208110156200010857600080fd5b81019080805160405193929190846401000000008211156200012957600080fd5b9083019060208201858111156200013f57600080fd5b82516401000000008111828201881017156200015a57600080fd5b82525081516020918201929091019080838360005b83811015620001895781810151838201526020016200016f565b50505050905090810190601f168015620001b75780820380516001836020036101000a031916815260200191505b5060405250505060405160200180806602b32b9ba32b2160cd1b81525060070182805190602001908083835b60208310620002045780518252601f199092019160209182019101620001e3565b6001836020036101000a038019825116818451168082178552505050505050905001915050604051602081830303815290604052866001600160a01b03166395d89b416040518163ffffffff1660e01b815260040160006040518083038186803b1580156200027257600080fd5b505afa15801562000287573d6000803e3d6000fd5b505050506040513d6000823e601f3d908101601f191682016040526020811015620002b157600080fd5b8101908080516040519392919084640100000000821115620002d257600080fd5b908301906020820185811115620002e857600080fd5b82516401000000008111828201881017156200030357600080fd5b82525081516020918201929091019080838360005b838110156200033257818101518382015260200162000318565b50505050905090810190601f168015620003605780820380516001836020036101000a031916815260200191505b506040525050506040516020018080603b60f91b81525060010182805190602001908083835b60208310620003a75780518252601f19909201916020918201910162000386565b6001836020036101000a0380198251168184511680821785525050505050509050019150506040516020818303038152906040528785858560006001600160a01b0316846001600160a01b031614156200040057600080fd5b8061ffff168261ffff16116200041557600080fd5b60048054600160201b600160c01b0319166401000000006001600160a01b03871602179055600060ff8416600381106200044b57fe5b01546003556004805461ffff928316620100000263ffff0000199490931661ffff199091161792909216179055506200048d90506301ffc9a760e01b620005d1565b8151620004a290600c90602085019062000699565b508051620004b890600d90602084019062000699565b50620004d46380ac58cd60e01b6001600160e01b03620005d116565b620004ef635b5e139f60e01b6001600160e01b03620005d116565b6200050a63780e9d6360e01b6001600160e01b03620005d116565b5050670de0b6b3a76400006001600160401b03851611156200052b57600080fd5b601380546001600160401b0319166001600160401b03861617905560128590556004546040516401000000009091046001600160a01b031690869062000571906200070b565b6001600160a01b0390921682526020820152604080519182900301906000f080158015620005a3573d6000803e3d6000fd5b50601180546001600160a01b0319166001600160a01b03929092169190911790555062000739945050505050565b6001600160e01b0319808216141562000631576040805162461bcd60e51b815260206004820152601c60248201527f4552433136353a20696e76616c696420696e7465726661636520696400000000604482015290519081900360640190fd5b6001600160e01b0319166000908152600660205260409020805460ff19166001179055565b826003810192821562000687579160200282015b82811115620006875782518255916020019190600101906200066a565b506200069592915062000719565b5090565b828054600181600116156101000203166002900490600052602060002090601f016020900481019282601f10620006dc57805160ff191683800117855562000687565b82800160010185558215620006875791820182811115620006875782518255916020019190600101906200066a565b610508806200307583390190565b6200073691905b8082111562000695576000815560010162000720565b90565b61292c80620007496000396000f3fe608060405234801561001057600080fd5b50600436106101f05760003560e01c806370a082311161010f578063b88d4fde116100a2578063f3640e7411610071578063f3640e74146106ff578063f4537f7814610707578063fc0c546a1461070f578063fc157cb414610717576101f0565b8063b88d4fde146105d3578063c87b56dd14610697578063cbd09371146106b4578063e985e9c5146106d1576101f0565b80639ff59081116100de5780639ff59081146104e1578063a22cb465146104fe578063ab3b1c1b1461052c578063ae9682fd146105b6576101f0565b806370a082311461048e5780637313ee5a146104b45780637935510b146104bc57806395d89b41146104d9576101f0565b80632f745c59116101875780635db976da116101565780635db976da146104275780636352211e1461044c5780636c0360eb146104695780636c98382a14610471576101f0565b80632f745c591461038b5780633a81bd5e146103b757806342842e0e146103d45780634f6ccce71461040a576101f0565b80631514617e116101c35780631514617e1461031457806318160ddd1461033357806323b872dd1461034d5780632eb4a7ab14610383576101f0565b806301ffc9a7146101f557806306fdde0314610230578063081812fc146102ad578063095ea7b3146102e6575b600080fd5b61021c6004803603602081101561020b57600080fd5b50356001600160e01b03191661071f565b604080519115158252519081900360200190f35b610238610742565b6040805160208082528351818301528351919283929083019185019080838360005b8381101561027257818101518382015260200161025a565b50505050905090810190601f16801561029f5780820380516001836020036101000a031916815260200191505b509250505060405180910390f35b6102ca600480360360208110156102c357600080fd5b50356107d8565b604080516001600160a01b039092168252519081900360200190f35b610312600480360360408110156102fc57600080fd5b506001600160a01b03813516906020013561083a565b005b61031c610915565b6040805161ffff9092168252519081900360200190f35b61033b61091f565b60408051918252519081900360200190f35b6103126004803603606081101561036357600080fd5b506001600160a01b03813581169160208101359091169060400135610930565b61033b61096b565b61033b600480360360408110156103a157600080fd5b506001600160a01b038135169060200135610971565b61033b600480360360208110156103cd57600080fd5b50356109a2565b610312600480360360608110156103ea57600080fd5b506001600160a01b038135811691602081013590911690604001356109b7565b61033b6004803603602081101561042057600080fd5b50356109d2565b61042f6109ee565b6040805167ffffffffffffffff9092168252519081900360200190f35b6102ca6004803603602081101561046257600080fd5b50356109fe565b610238610a2c565b61033b6004803603602081101561048757600080fd5b5035610a8d565b61033b600480360360208110156104a457600080fd5b50356001600160a01b0316610aa2565b61033b610b0a565b610312600480360360208110156104d257600080fd5b5035610b10565b610238610cbe565b61031c600480360360208110156104f757600080fd5b5035610d1f565b6103126004803603604081101561051457600080fd5b506001600160a01b0381351690602001351515610d38565b6103126004803603608081101561054257600080fd5b8135916001600160a01b036020820135169160408201359190810190608081016060820135600160201b81111561057857600080fd5b82018360208201111561058a57600080fd5b803590602001918460208302840111600160201b831117156105ab57600080fd5b509092509050610e3d565b6102ca600480360360208110156105cc57600080fd5b50356110ee565b610312600480360360808110156105e957600080fd5b6001600160a01b03823581169260208101359091169160408201359190810190608081016060820135600160201b81111561062357600080fd5b82018360208201111561063557600080fd5b803590602001918460018302840111600160201b8311171561065657600080fd5b91908080601f016020809104026020016040519081016040528093929190818152602001838380828437600092019190915250929550611109945050505050565b610238600480360360208110156106ad57600080fd5b503561114b565b61033b600480360360208110156106ca57600080fd5b50356113f2565b61021c600480360360408110156106e757600080fd5b506001600160a01b0381358116916020013516611407565b61031c611435565b6102ca611445565b6102ca611454565b61042f61146a565b6001600160e01b0319811660009081526006602052604090205460ff165b919050565b600c8054604080516020601f60026000196101006001881615020190951694909404938401819004810282018101909252828152606093909290918301828280156107ce5780601f106107a3576101008083540402835291602001916107ce565b820191906000526020600020905b8154815290600101906020018083116107b157829003601f168201915b5050505050905090565b60006107e382611476565b61081e5760405162461bcd60e51b815260040180806020018281038252602c815260200180612821602c913960400191505060405180910390fd5b506000908152600a60205260409020546001600160a01b031690565b6000610845826109fe565b9050806001600160a01b0316836001600160a01b031614156108985760405162461bcd60e51b81526004018080602001828103825260218152602001806128a56021913960400191505060405180910390fd5b806001600160a01b03166108aa611489565b6001600160a01b031614806108cb57506108cb816108c6611489565b611407565b6109065760405162461bcd60e51b81526004018080602001828103825260388152602001806127536038913960400191505060405180910390fd5b610910838361148d565b505050565b60045461ffff1681565b600061092b60086114fb565b905090565b826001600160a01b0316610943826110ee565b6001600160a01b03161461095657600080fd5b6109608183611506565b610910838383611566565b60125481565b6001600160a01b0382166000908152600760205260408120610999908363ffffffff6115bd16565b90505b92915050565b60009081526005602052604090206004015490565b61091083838360405180602001604052806000815250611109565b6000806109e660088463ffffffff6115c916565b509392505050565b60135467ffffffffffffffff1681565b600061099c826040518060600160405280602981526020016127b5602991396008919063ffffffff6115e516565b600f8054604080516020601f60026000196101006001881615020190951694909404938401819004810282018101909252828152606093909290918301828280156107ce5780601f106107a3576101008083540402835291602001916107ce565b60009081526005602052604090206002015490565b60006001600160a01b038216610ae95760405162461bcd60e51b815260040180806020018281038252602a81526020018061278b602a913960400191505060405180910390fd5b6001600160a01b038216600090815260076020526040902061099c906114fb565b60035481565b600080610b1c836115fc565b909250905080610b61576040805162461bcd60e51b815260206004820152600b60248201526a056657374656420697320360ac1b604482015290519081900360640190fd5b60008381526005602052604090206003810154610b8c9061ffff90811690851663ffffffff61175416565b60038201805461ffff191661ffff929092169190911790556004810154610bb39083611754565b600480830191909155805482546040805163a9059cbb60e01b81526001600160a01b03928316948101949094526024840186905251600160201b909204169163a9059cbb9160448083019260209291908290030181600087803b158015610c1957600080fd5b505af1158015610c2d573d6000803e3d6000fd5b505050506040513d6020811015610c4357600080fd5b5051610c82576040805162461bcd60e51b81526020600482015260096024820152686e6f20746f6b656e7360b81b604482015290519081900360640190fd5b60408051838152905185917f06f9a9458da6e9018259dd142054d8105c44b298fa5dac8a0e96d03521911029919081900360200190a250505050565b600d8054604080516020601f60026000196101006001881615020190951694909404938401819004810282018101909252828152606093909290918301828280156107ce5780601f106107a3576101008083540402835291602001916107ce565b60009081526005602052604090206003015461ffff1690565b610d40611489565b6001600160a01b0316826001600160a01b03161415610da6576040805162461bcd60e51b815260206004820152601960248201527f4552433732313a20617070726f766520746f2063616c6c657200000000000000604482015290519081900360640190fd5b80600b6000610db3611489565b6001600160a01b03908116825260208083019390935260409182016000908120918716808252919093529120805460ff191692151592909217909155610df7611489565b60408051841515815290516001600160a01b0392909216917f17307eab39ab6107e8899845ad3d59bd9653f200f220920489ca2b5937696c319181900360200190a35050565b601154604051632e7ba6ef60e01b8152600481018781526001600160a01b0387811660248401526044830187905260806064840190815260848401869052931692632e7ba6ef9289928992899289928992909160a401846020850280828437600081840152601f19601f8201169050808301925050509650505050505050600060405180830381600087803b158015610ed557600080fd5b505af1158015610ee9573d6000803e3d6000fd5b5050601354670de0b6b3a764000067ffffffffffffffff90911610159150610f87905057610f1760106117ae565b6000610f2360106117b7565b9050610f2f85826117bb565b601354610f859082908790610f8090670de0b6b3a764000090610f7490610f6790839067ffffffffffffffff1663ffffffff6117d916565b8a9063ffffffff61181b16565b9063ffffffff61187416565b6118b6565b505b60135467ffffffffffffffff16156110a857600454601354600160201b9091046001600160a01b03169063a9059cbb908690610fdc90670de0b6b3a764000090610f7490899067ffffffffffffffff1661181b565b6040518363ffffffff1660e01b815260040180836001600160a01b03166001600160a01b0316815260200182815260200192505050602060405180830381600087803b15801561102b57600080fd5b505af115801561103f573d6000803e3d6000fd5b505050506040513d602081101561105557600080fd5b50516110a8576040805162461bcd60e51b815260206004820152601760248201527f50617274793a205472616e73666572206661696c65642e000000000000000000604482015290519081900360640190fd5b6040805184815290516001600160a01b038616917f187ede7a32e58c70fd78b68690baf3ab645eafc0a564bea6fec2420f67e1e390919081900360200190a25050505050565b6000908152600560205260409020546001600160a01b031690565b836001600160a01b031661111c836110ee565b6001600160a01b03161461112f57600080fd5b6111398284611506565b611145848484846119fd565b50505050565b606061115682611476565b6111915760405162461bcd60e51b815260040180806020018281038252602f815260200180612876602f913960400191505060405180910390fd5b6000828152600e602090815260409182902080548351601f60026000196101006001861615020190931692909204918201849004840281018401909452808452606093928301828280156112265780601f106111fb57610100808354040283529160200191611226565b820191906000526020600020905b81548152906001019060200180831161120957829003601f168201915b5050600f549394505050506002600019610100600184161502019091160461124f57905061073d565b80511561132057600f8160405160200180838054600181600116156101000203166002900480156112b75780601f106112955761010080835404028352918201916112b7565b820191906000526020600020905b8154815290600101906020018083116112a3575b5050825160208401908083835b602083106112e35780518252601f1990920191602091820191016112c4565b6001836020036101000a0380198251168184511680821785525050505050509050019250505060405160208183030381529060405291505061073d565b600f61132b84611a55565b60405160200180838054600181600116156101000203166002900480156113895780601f10611367576101008083540402835291820191611389565b820191906000526020600020905b815481529060010190602001808311611375575b5050825160208401908083835b602083106113b55780518252601f199092019160209182019101611396565b6001836020036101000a03801982511681845116808217855250505050505090500192505050604051602081830303815290604052915050919050565b60009081526005602052604090206001015490565b6001600160a01b039182166000908152600b6020908152604080832093909416825291909152205460ff1690565b60045462010000900461ffff1681565b6011546001600160a01b031681565b600454600160201b90046001600160a01b031681565b670de0b6b3a764000081565b600061099c60088363ffffffff611b3016565b3390565b6000818152600a6020526040902080546001600160a01b0319166001600160a01b03841690811790915581906114c2826109fe565b6001600160a01b03167f8c5be1e5ebec7d5bd14f71427d1e84f3dd0314c0f7b2291e5b200ac8c7c3b92560405160405180910390a45050565b600061099c826117b7565b61150f82610b10565b60008281526005602052604080822080546001600160a01b0319166001600160a01b0385161781559051909184917fc1824999cb4cd8ccb93e8e67f4fa273e70cbf00a1e0d7dab6938865d58cc2d9d9190a2505050565b611577611571611489565b82611b3c565b6115b25760405162461bcd60e51b81526004018080602001828103825260318152602001806128c66031913960400191505060405180910390fd5b610910838383611be0565b60006109998383611d3e565b60008080806115d88686611da2565b9097909650945050505050565b60006115f2848484611e1d565b90505b9392505050565b60008181526005602052604081206001810154600482015483929111611661576040805162461bcd60e51b815260206004820152601560248201527415995cdd1a5b99c8199d5b1b1e4818db185a5b5959605a1b604482015290519081900360640190fd5b6000611685600354610f748460020154611679611ee7565b9063ffffffff6117d916565b60045490915062010000900461ffff168110156116ab57506000925082915061174f9050565b60045461ffff1681106116e95760006116d5836004015484600101546117d990919063ffffffff16565b60045461ffff169550935061174f92505050565b600382015460009061170690839061ffff1663ffffffff6117d916565b60045460018501549192506000916117279161ffff1663ffffffff61187416565b9050600061173f61ffff84168363ffffffff61181b16565b92965091945061174f9350505050565b915091565b600082820183811015610999576040805162461bcd60e51b815260206004820152601b60248201527f536166654d6174683a206164646974696f6e206f766572666c6f770000000000604482015290519081900360640190fd5b80546001019055565b5490565b6117d5828260405180602001604052806000815250611eeb565b5050565b600061099983836040518060400160405280601e81526020017f536166654d6174683a207375627472616374696f6e206f766572666c6f770000815250611f3d565b60008261182a5750600061099c565b8282028284828161183757fe5b04146109995760405162461bcd60e51b81526004018080602001828103825260218152602001806128006021913960400191505060405180910390fd5b600061099983836040518060400160405280601a81526020017f536166654d6174683a206469766973696f6e206279207a65726f000000000000815250611f97565b6004546000906118d190839061ffff1663ffffffff61187416565b905060008111611928576040805162461bcd60e51b815260206004820152601960248201527f616d6f756e74566573746564506572506572696f64203e203000000000000000604482015290519081900360640190fd5b611930612672565b6040518060a00160405280856001600160a01b03168152602001848152602001611958611ee7565b815260006020808301829052604092830182905288825260058152828220845181546001600160a01b0319166001600160a01b03909116178155908401516001820155838301516002820155606084015160038201805461ffff191661ffff9092169190911790556080840151600490910155905191925086917f7fc35119d3b3c2716103649a77c63b4a0062583d6c5dff44606e5333ba40771b9190a25050505050565b611a0e611a08611489565b83611b3c565b611a495760405162461bcd60e51b81526004018080602001828103825260318152602001806128c66031913960400191505060405180910390fd5b61114584848484611ffc565b606081611a7a57506040805180820190915260018152600360fc1b602082015261073d565b8160005b8115611a9257600101600a82049150611a7e565b60608167ffffffffffffffff81118015611aab57600080fd5b506040519080825280601f01601f191660200182016040528015611ad6576020820181803683370190505b50859350905060001982015b8315611b2757600a840660300160f81b82828060019003935081518110611b0557fe5b60200101906001600160f81b031916908160001a905350600a84049350611ae2565b50949350505050565b6000610999838361204e565b6000611b4782611476565b611b825760405162461bcd60e51b815260040180806020018281038252602c815260200180612727602c913960400191505060405180910390fd5b6000611b8d836109fe565b9050806001600160a01b0316846001600160a01b03161480611bc85750836001600160a01b0316611bbd846107d8565b6001600160a01b0316145b80611bd85750611bd88185611407565b949350505050565b826001600160a01b0316611bf3826109fe565b6001600160a01b031614611c385760405162461bcd60e51b815260040180806020018281038252602981526020018061284d6029913960400191505060405180910390fd5b6001600160a01b038216611c7d5760405162461bcd60e51b81526004018080602001828103825260248152602001806127036024913960400191505060405180910390fd5b611c88838383610910565b611c9360008261148d565b6001600160a01b0383166000908152600760205260409020611cbb908263ffffffff61206616565b506001600160a01b0382166000908152600760205260409020611ce4908263ffffffff61207216565b50611cf76008828463ffffffff61207e16565b5080826001600160a01b0316846001600160a01b03167fddf252ad1be2c89b69c2b068fc378daa952ba7f163c4a11628f55a4df523b3ef60405160405180910390a4505050565b81546000908210611d805760405162461bcd60e51b81526004018080602001828103825260228152602001806126af6022913960400191505060405180910390fd5b826000018281548110611d8f57fe5b9060005260206000200154905092915050565b815460009081908310611de65760405162461bcd60e51b81526004018080602001828103825260228152602001806127de6022913960400191505060405180910390fd5b6000846000018481548110611df757fe5b906000526020600020906002020190508060000154816001015492509250509250929050565b60008281526001840160205260408120548281611eb85760405162461bcd60e51b81526004018080602001828103825283818151815260200191508051906020019080838360005b83811015611e7d578181015183820152602001611e65565b50505050905090810190601f168015611eaa5780820380516001836020036101000a031916815260200191505b509250505060405180910390fd5b50846000016001820381548110611ecb57fe5b9060005260206000209060020201600101549150509392505050565b4290565b611ef58383612094565b611f0260008484846121ce565b6109105760405162461bcd60e51b81526004018080602001828103825260328152602001806126d16032913960400191505060405180910390fd5b60008184841115611f8f5760405162461bcd60e51b8152602060048201818152835160248401528351909283926044909101919085019080838360008315611e7d578181015183820152602001611e65565b505050900390565b60008183611fe65760405162461bcd60e51b8152602060048201818152835160248401528351909283926044909101919085019080838360008315611e7d578181015183820152602001611e65565b506000838581611ff257fe5b0495945050505050565b612007848484611be0565b612013848484846121ce565b6111455760405162461bcd60e51b81526004018080602001828103825260328152602001806126d16032913960400191505060405180910390fd5b60009081526001919091016020526040902054151590565b6000610999838361234e565b60006109998383612414565b60006115f284846001600160a01b03851661245e565b6001600160a01b0382166120ef576040805162461bcd60e51b815260206004820181905260248201527f4552433732313a206d696e7420746f20746865207a65726f2061646472657373604482015290519081900360640190fd5b6120f881611476565b1561214a576040805162461bcd60e51b815260206004820152601c60248201527f4552433732313a20746f6b656e20616c7265616479206d696e74656400000000604482015290519081900360640190fd5b61215660008383610910565b6001600160a01b038216600090815260076020526040902061217e908263ffffffff61207216565b506121916008828463ffffffff61207e16565b5060405181906001600160a01b038416906000907fddf252ad1be2c89b69c2b068fc378daa952ba7f163c4a11628f55a4df523b3ef908290a45050565b60006121e2846001600160a01b03166124f5565b6121ee57506001611bd8565b6060612314630a85bd0160e11b612203611489565b88878760405160240180856001600160a01b03166001600160a01b03168152602001846001600160a01b03166001600160a01b0316815260200183815260200180602001828103825283818151815260200191508051906020019080838360005b8381101561227c578181015183820152602001612264565b50505050905090810190601f1680156122a95780820380516001836020036101000a031916815260200191505b5095505050505050604051602081830303815290604052906001600160e01b0319166020820180516001600160e01b0383818316178352505050506040518060600160405280603281526020016126d1603291396001600160a01b038816919063ffffffff6124fb16565b9050600081806020019051602081101561232d57600080fd5b50516001600160e01b031916630a85bd0160e11b1492505050949350505050565b6000818152600183016020526040812054801561240a578354600019808301919081019060009087908390811061238157fe5b906000526020600020015490508087600001848154811061239e57fe5b6000918252602080832090910192909255828152600189810190925260409020908401905586548790806123ce57fe5b6001900381819060005260206000200160009055905586600101600087815260200190815260200160002060009055600194505050505061099c565b600091505061099c565b6000612420838361204e565b6124565750815460018181018455600084815260208082209093018490558454848252828601909352604090209190915561099c565b50600061099c565b6000828152600184016020526040812054806124c35750506040805180820182528381526020808201848152865460018181018955600089815284812095516002909302909501918255915190820155865486845281880190925292909120556115f5565b828560000160018303815481106124d657fe5b90600052602060002090600202016001018190555060009150506115f5565b3b151590565b60606115f284846000856060612510856124f5565b612561576040805162461bcd60e51b815260206004820152601d60248201527f416464726573733a2063616c6c20746f206e6f6e2d636f6e7472616374000000604482015290519081900360640190fd5b60006060866001600160a01b031685876040518082805190602001908083835b602083106125a05780518252601f199092019160209182019101612581565b6001836020036101000a03801982511681845116808217855250505050505090500191505060006040518083038185875af1925050503d8060008114612602576040519150601f19603f3d011682016040523d82523d6000602084013e612607565b606091505b5091509150811561261b579150611bd89050565b80511561262b5780518082602001fd5b60405162461bcd60e51b8152602060048201818152865160248401528651879391928392604401919085019080838360008315611e7d578181015183820152602001611e65565b6040518060a0016040528060006001600160a01b031681526020016000815260200160008152602001600061ffff16815260200160008152509056fe456e756d657261626c655365743a20696e646578206f7574206f6620626f756e64734552433732313a207472616e7366657220746f206e6f6e20455243373231526563656976657220696d706c656d656e7465724552433732313a207472616e7366657220746f20746865207a65726f20616464726573734552433732313a206f70657261746f7220717565727920666f72206e6f6e6578697374656e7420746f6b656e4552433732313a20617070726f76652063616c6c6572206973206e6f74206f776e6572206e6f7220617070726f76656420666f7220616c6c4552433732313a2062616c616e636520717565727920666f7220746865207a65726f20616464726573734552433732313a206f776e657220717565727920666f72206e6f6e6578697374656e7420746f6b656e456e756d657261626c654d61703a20696e646578206f7574206f6620626f756e6473536166654d6174683a206d756c7469706c69636174696f6e206f766572666c6f774552433732313a20617070726f76656420717565727920666f72206e6f6e6578697374656e7420746f6b656e4552433732313a207472616e73666572206f6620746f6b656e2074686174206973206e6f74206f776e4552433732314d657461646174613a2055524920717565727920666f72206e6f6e6578697374656e7420746f6b656e4552433732313a20617070726f76616c20746f2063757272656e74206f776e65724552433732313a207472616e736665722063616c6c6572206973206e6f74206f776e6572206e6f7220617070726f766564a2646970667358221220e846111283a64cff8331e370affca8444140c33aecb4b4efdfbeb9db22b0694964736f6c6343000607003360c060405234801561001057600080fd5b506040516105083803806105088339818101604052604081101561003357600080fd5b508051602090910151606082901b6001600160601b03191660805260a08190526001600160a01b03909116906104876100816000398061020b52806102cc52508061031652506104876000f3fe608060405234801561001057600080fd5b506004361061004c5760003560e01c80632e7ba6ef146100515780632eb4a7ab146100df5780639e34070f146100f9578063fc0c546a1461012a575b600080fd5b6100dd6004803603608081101561006757600080fd5b8135916001600160a01b03602082013516916040820135919081019060808101606082013564010000000081111561009e57600080fd5b8201836020820111156100b057600080fd5b803590602001918460208302840111640100000000831117156100d257600080fd5b50909250905061014e565b005b6100e76102ca565b60408051918252519081900360200190f35b6101166004803603602081101561010f57600080fd5b50356102ee565b604080519115158252519081900360200190f35b610132610314565b604080516001600160a01b039092168252519081900360200190f35b610157856102ee565b156101935760405162461bcd60e51b81526004018080602001828103825260288152602001806104096028913960400191505060405180910390fd5b6040805160208082018890526bffffffffffffffffffffffff19606088901b1682840152605480830187905283518084039091018152607483018085528151918301919091206094928602808501840190955285825293610236939192879287928392909101908490808284376000920191909152507f000000000000000000000000000000000000000000000000000000000000000092508591506103389050565b6102715760405162461bcd60e51b81526004018080602001828103825260218152602001806104316021913960400191505060405180910390fd5b61027a866103e1565b604080518781526001600160a01b038716602082015280820186905290517f4ec90e965519d92681267467f775ada5bd214aa92c0dc93d90a5e880ce9ed0269181900360600190a1505050505050565b7f000000000000000000000000000000000000000000000000000000000000000081565b6101008104600090815260208190526040902054600160ff9092169190911b9081161490565b7f000000000000000000000000000000000000000000000000000000000000000081565b600081815b85518110156103d657600086828151811061035457fe5b6020026020010151905080831161039b57828160405160200180838152602001828152602001925050506040516020818303038152906040528051906020012092506103cd565b808360405160200180838152602001828152602001925050506040516020818303038152906040528051906020012092505b5060010161033d565b509092149392505050565b610100810460009081526020819052604090208054600160ff9093169290921b909117905556fe4d65726b6c654469737472696275746f723a2044726f7020616c726561647920636c61696d65642e4d65726b6c654469737472696275746f723a20496e76616c69642070726f6f662ea2646970667358221220ab459814f59a7ca12340cc2926f737b6f3417e4d76af39800f9355a91d2aa8ff64736f6c63430006070033a2646970667358221220e3f8053087ad394bfa4be5b1452c70cf2a996a3a9705307b8e9987af42f43ef164736f6c63430006070033",
  "devdoc": {
    "methods": {}
  },
  "userdoc": {
    "methods": {}
  },
  "storageLayout": {
    "storage": [],
    "types": null
  }
}